:020000040800F2
:10000000F824002041020008F5430008053A0008E2
:100010007D430008B51800080555000800000000E1
:10002000000000000000000000000000A90100081E
:10003000B718000800000000ED0100080D4F00088F
:100040005B0200085B0200085B0200085B0200081C
:100050005B0200085B0200085B0200085B0200080C
:100060005B0200085B020008C11800085B02000880
:100070005B0200085B0200085B0200085B020008EC
:100080005B0200085B0200085B0200085B020008DC
:100090005B0200085B0200085B0200085B020008CC
:1000A0005B020008B54F00085B0200085B02000815
:1000B000C14F0008CD4F0008D94F00085B0200086F
:1000C0005B0200085B0200085B0200085B0200089C
:1000D0005B020008A9540008ED540008F954000818
:1000E000B91800085B0200085B02000800F002F883
:1000F00000F04AF80AA090E8000C82448344AAF178
:100100000107DA4501D100F03FF8AFF2090EBAE875
:100110000F0013F0010F18BFFB1A43F0010318473B
:1001200038B8000058B80000103A24BF78C878C129
:10013000FAD8520724BF30C830C144BF04680C60ED
:10014000704700000023002400250026103A28BF35
:1001500078C1FBD8520728BF30C148BF0B60704739
:1001600066290AF0A080642900F0488100207047C9
:100170001FB500F03FFE04000020002108F0CEFF74
:10018000E0601FBD10B510BD00F034FF1146FFF751
:10019000EFFF06F013FD00F052FF03B4FFF7F2FF8C
:1001A00003BC05F044FA0000224B19680868B0E867
:1001B000F00F80F30988BFF36F8F4FF0000080F3DA
:1001C00011884EF00D0E70470000000006480068D0
:1001D000006880F3088862B661B6BFF34F8FBFF343
:1001E0006F8F00DF00BF00BF08ED00E0EFF3098074
:1001F000BFF36F8F0F4B1A6820E9F00F106008B53E
:100200004FF0500080F31188BFF34F8FBFF36F8F13
:1002100008F034FB4FF0000080F31188BDE808407F
:1002200019680868B0E8F00F80F30988BFF36F8F92
:10023000704700BF70000020EFF30580704700009A
:100240000948804709480047FEE7FEE7FEE7FEE76A
:10025000FEE7FEE7FEE7FEE7FEE7FEE704480549A6
:10026000054A064B70470000B14F0008ED0000083A
:10027000F8140020F8240020F81C0020F81C0020AE
:10028000704753EA020C00F069802DE9F04B4FF003
:100290000006002B1FBFB3FA83F503FA05F424FA16
:1002A00005F65E4012BF1643B2FA82F502FA05F473
:1002B000C5F120051EBF22FA05FC44EA0C042035D6
:1002C00056EA044C4FEA144418BF641C4FF000086F
:1002D0004FF00009904271EB030C39D3002919BF8C
:1002E000B1FA81F701FA07F6B0FA80F700FA07F6DB
:1002F000C7F120071EBF20FA07FC46EA0C0620378C
:10030000B6FBF4FCA7EB0507103F07F01F0BCBF182
:1003100020060CFA0BFB2CFA06F644BFB346002667
:10032000202FA4BF5E464FF0000B5BEA060C08BF0F
:100330004FF0010B19EB0B09ABFB027C48EB0608F5
:10034000C01B06FB02CC0BFB03CC71EB0C01C1E71D
:100350000B46024641464846BDE8F08B13B54FF0C8
:1003600000004FF00001AFF30080BDE81C40704773
:1003700010B54C1084EA530404D54042C1F1000189
:1003800038BF491E1B4204D55242C3F1000338BF97
:100390005B1EFFF776FF14F0804F04D04042C1F19E
:1003A000000138BF491E14F0004F04D05242C3F17F
:1003B000000338BF5B1E10BD0FB4044910B503AA7B
:1003C000029800F0DFFC10BC5DF814FB1401002063
:1003D0000FB41CB5084B06AA7B44694600900598EB
:1003E00000F0B7FC04460020694600F0C5FC20463A
:1003F0001CBC5DF814FB00009D0900002DE9F041D4
:100400000646002410687529314616A510D0AFF3B2
:100410000080002802DA404213A507E031688A070D
:1004200001D512A502E0490704D511A5012401E078
:10043000AFF3008000210A2206F1240709E0B0FB97
:10044000F2FCB0FBF2F302FB1C003030785418468B
:10045000491C0028F3D123462A463046BDE8F04126
:1004600000F009BA000000002D0000002B00000081
:10047000200000002DE9F05F894604464FF0000A95
:10048000DFF824B1FB44C0F820A02046E16888478B
:1004900000287DD0252806D0D4E901219047206A84
:1004A000401C2062F1E700255F462046E16888474E
:1004B0002028064607DB312E05D2B81910F8200C8B
:1004C00008B10543F1E7A80701D525F00405C4F8F4
:1004D0001CA00027C4F818A02A2E09D0304605F029
:1004E0009FF838B304EB8708303EC8F8186019E06D
:1004F00059F8041B204604EB87029161E1688847A4
:10050000012F064618D1E069002820DA25F02005E1
:100510001DE0D8F8180000EB800006EB40003038F2
:10052000C8F818002046E1688847064605F078F8C4
:100530000028EED1012F0AD02E2E08D12046E168E6
:1005400088477F1C0646022F45F02005C4DBA069C2
:10055000002803DA404245F00105A061E80701D018
:1005600025F01005A6B1A6F14100192802D82036C1
:1005700045F400654A463146204625604D46FFF762
:10058000EFFD60B1012807D0ED1D25F0070000E068
:1005900007E000F1080978E705F1040975E730463E
:1005A0007AE7206ABDE8F09F36B2000040EA010316
:1005B00010B59B070FD1042A0DD310C808C9121F0C
:1005C0009C42F8D020BA19BA884201D9012010BD46
:1005D0004FF0FF3010BD1AB1D30703D0521C07E013
:1005E000002010BD10F8013B11F8014B1B1B07D177
:1005F00010F8013B11F8014B1B1B01D1921EF1D1E8
:10060000184610BD40EA0103024630B59B0710D1E1
:100610004FF0013400E008C208C91D1B9D4315EAD4
:10062000C41FF8D013F0FF0102F8011B0DD01B0A04
:10063000F8E711F8013B002B02F8013B05D011F857
:10064000013B002B02F8013BF3D130BD10B5431C38
:1006500002E010F8011B71B18107FAD14FF00132AD
:1006600002C88C1A8C4314EAC211F9D0C01A0A06C7
:1006700003D0C01E10BDC01A10BD0A0401D0801ED8
:1006800010BD0902FCD0401E10BD032A40F230808C
:1006900010F0030C00F0158011F8013BBCF1020FC3
:1006A000624498BF11F801CB00F8013B38BF11F844
:1006B000013BA2F1040298BF00F801CB38BF00F85B
:1006C000013B11F0030300F02580083AC0F00880D8
:1006D00051F8043B083A51F804CBA0E80810F5E7BC
:1006E000121D5CBF51F8043B40F8043BAFF300809F
:1006F000D20724BF11F8013B11F801CB48BF11F814
:10070000012B24BF00F8013B00F801CB48BF00F8E3
:10071000012B704710B5203AC0F00B80B1E818509B
:10072000203AA0E81850B1E81850A0E81850BFF4DB
:10073000F5AF5FEA027C24BFB1E81850A0E818507A
:1007400044BF18C918C0BDE810405FEA827C24BFCE
:1007500051F8043B40F8043B08BF7047D20728BF5C
:1007600031F8023B48BF11F8012B28BF20F8023BAB
:1007700048BF00F8012B704702F0FF0343EA032251
:1007800042EA024200F012BB4FF0000200B51346ED
:1007900094469646203922BFA0E80C50A0E80C50A1
:1007A000B1F12001BFF4F7AF090728BFA0E80C5052
:1007B00048BF0CC05DF804EB890028BF40F8042B4B
:1007C00008BF704748BF20F8022B11F0804F18BFB8
:1007D00000F8012B704700004FF0013C50F8042B4B
:1007E00051F8043B9A4221D1A2EB0C03934313EA44
:1007F000CC1317D150F8042B51F8043B9A4215D171
:10080000A2EB0C03934313EACC130BD150F8042B47
:1008100051F8043B9A4209D1A2EB0C03934313EA2B
:10082000CC13DBD04FF00000704700BFD01A01BAE4
:10083000B1FA81F101F0180122FA01F0CB40C1F1C7
:100840002001DBB2C0B2C01A2CFA01F3D11A9143D5
:1008500011EAC311E6D1704770477047704770477F
:1008600010B500F0CBFA006810BD10B5044600F0DA
:10087000C5FA046010BD2DE9F0470D469946924631
:10088000044600F124080168880604D5E06921F0D7
:100890001001216000E00120A84201DD471B00E0BB
:1008A0000027A1697A1902EB0900081AA0612078D3
:1008B000C00602D42046AFF30080002608E0D4E949
:1008C00001211AF806009047206A401C761C20621D
:1008D0004E45F4DB2078C0060AD52046AFF30080F1
:1008E00006E0D4E9012130209047206A401C2062B4
:1008F000381EA7F10107F4DC07E0D4E9012118F85C
:1009000005009047206A401C2062281EA5F10105C1
:10091000F3DC2046AFF300802078000602D50220E9
:10092000BDE8F0870120FBE770472DE9FF4F0C463B
:100930001E464FF0FF378BB0D2E90001DDF8608032
:100940000A908A46C1F30A5505B93D46002108467A
:100950004FF00000BAF1000F00F4400005DA00EBA0
:1009600080004FF4400101EA50004FEA9059B9F17C
:10097000010F00DDB9460A9850EA4A000ED044F64D
:100980001050A5F2FF3545432F14B8F1000F1ED0CB
:100990007542291E1EDDC9F100021CE0B8F1010FED
:1009A0004FF0000001D0302103E0F24305E0215474
:1009B000401CB042FBDB30460022002121540B9941
:1009C000C1F80880C1E900200FB0BDE8F08FBD1B61
:1009D0006D1CDEE74A4600DA694206A800F098FA84
:1009E00006AB93E8070003AB83E8070050460A997B
:1009F00000F02EFB8DE80700A0F500501F38009096
:100A00000398002D0ADD42F21F014A4608440023E4
:100A100003A90390684600F097FD09E0A0F5005097
:100A20004A461F38002303A90390684600F0A1FD41
:100A30008DE807000004000C03D04FF0FF304108A0
:100A400000E01046B8F1000F03D0002200921546D6
:100A50001EE0751E05D400F0D5F9303262556D1ECA
:100A6000F9D5B3460122084302D000227F1C04E0DE
:100A70002078302801D100227F1E002A099784D0D7
:100A80001DE0112D07DA00F0BDF9303262556D1C02
:100A900050EA0102F5D1084302D00098C8B10EE037
:100AA0000021681E05E0235C625C63542254401EF2
:100AB000491C8142F7DBAB46A81B401E0990002071
:100AC00004F80B000B98099AC0F80880C0E9002BC5
:100AD0007AE711264FF0000857E72DE9F04F8846D6
:100AE0000446D21D22F0070191B0D1E90001CDE901
:100AF0000A0104F008FD02460B98C00F01D02D201A
:100B000007E02068810701D52B2002E0202101EABF
:100B1000C000032A099001D0072A05DB034641469D
:100B2000204600F0B5F90BE12078800601D5E06998
:100B300000E00620B8F1650F814606D0B8F1660FD7
:100B400018D0B8F1670F70D131E00020B9F1110F62
:100B5000009001DB112301E009F101030AAA01A9B8
:100B60000CA8FFF7E2FEDDE90C70002609F1010593
:100B7000834647E001204B4600904FF000470AAA09
:100B800001A90CA8FFF7D1FEDDE90DB00C995D4677
:100B9000002610B909F101000D18B9EB050003D4C6
:100BA000C0F1FF3609F10105A5EB09002BE0B9F111
:100BB000010F01DA4FF001090020B9F1110F009087
:100BC000484601DD112300E003460AAA01A90CA84A
:100BD000FFF7ABFEDDE90C704D460026834620781A
:100BE00000070AD4AB4500DA5D4601A8012D04DDFB
:100BF000411911F8011C302907D04F4502DA17F1CD
:100C0000040F04DA012082460FE06D1EEEE7002F8C
:100C100002DCED1B3E4403E0781CA84200DD7D1C95
:100C2000B81B00F1010A4FF000472078000703D4F9
:100C3000AA4501DB4FF0FF3A0021B7F1004F0DF15B
:100C400043088DF8431024D002202B23002F01DA13
:100C50007F422D230A21021EA0F1010000DC5FB1BA
:100C600097FBF1FC97FBF1F201FB1C7C17460CF1A2
:100C7000300C08F801CDEEE7A8F1010003702188DF
:100C8000090501D5452100E06521A0F1010800F822
:100C9000011C09980FA9A1EB0807FF1D00B1012055
:100CA000411901EBEA70A1693844081A401EA0619D
:100CB0002078C00602D42046AFF30080099828B1FE
:100CC000D4E901219047206A401C20622078C006A8
:100CD00022D52046AFF300801EE0002E04DBB34592
:100CE00002DD01A8805D00E03020D4E901219047B9
:100CF000206A401C2062761CAAF101005FEA000A0B
:100D00000AD100F077F8C0680168405CD4E901219D
:100D10009047206A401C2062281EA5F10105DCDCFA
:100D200007E0D4E9012118F8010B9047206A401C24
:100D30002062381EA7F10107F3DC2046AFF30080E4
:100D4000032011B041E6000001694A1C02610878E5
:100D5000704700B58FB0CDE90131002105910549FB
:100D60007944CDE9031011466846FFF783FB0FB0C5
:100D700000BD0000E5FFFFFF0A6802F8010B0A60F2
:100D800070470000074B70B50D467B44FFF7E1FF4D
:100D90000446284605F078FC10B14FF0FF3070BDD6
:100DA000204670BD035900004FF000020429C0F036
:100DB000128010F0030C3FF4E9ACCCF1040CBCF150
:100DC000020F18BF00F8012BA8BF20F8022BA1EBDF
:100DD0000C01FFF7DBBC5FEAC17C24BF00F8012BEC
:100DE00000F8012B48BF00F8012B704700487047FE
:100DF0009814002000487047B8140020004870473D
:100E00009814002030B5B0F10A024FEA900E71F14B
:100E100000034EEA817EB0EB0E0061EB91014FEAD8
:100E2000101E4EEA017E10EB0E0041EB11114FEA4D
:100E3000102E4EEA016E10EB0E0041EB11214FEA2D
:100E4000104E4EEA014E10EB0E0041EB11414018DE
:100E500041F100014FEAD00040EA41704FEAD10170
:100E600010EB80054FEA810444EA907444EB0104DE
:100E70006D1944EB0404521BA3414FF0000348BF1B
:100E80000A3200D530BD401C41F1000130BD0000E8
:100E90002DE9F0411F46044603260168072A01F4A4
:100EA000006004DB08B116A505E016A503E008B153
:100EB00015A500E015A521F010002060A069C01E56
:100EC000A0610FB1401EA0612046AFF300804FB17A
:100ED000D4E9012138469047206A401C2062C01C9A
:100EE000206206E0206AFAE7D4E9012115F8010B37
:100EF0009047761EF8D22046AFF30080BDE8F0811F
:100F00004E414E006E616E00494E4600696E6600AD
:100F10002DE9F047814616468AB0354878440DC819
:100F20008DE80D0032487844801C03AC0DC884E87D
:100F30000D0041F69B300844372190FBF1F290FB05
:100F4000F1F5A5F1800501FB12041B3C02D56442BA
:100F5000012000E00020DFF898A080460027FA4436
:100F6000AAF1BE0A0EE0E0070AD03246684607EB57
:100F7000470101230AEB810100F0FBFA8DE807002D
:100F800064107F1C002CEED1194F7F44AE3F19E056
:100F9000E80715D007EB04100DF1180A90E80E00D1
:100FA0008AE80E00C068F04201D1981908903246D4
:100FB000012306A903A800F0DCFA03AB83E80700CD
:100FC0006D10641C002DE3D14FF0010332466946D9
:100FD000B8F1000F03A802D000F0B6FA01E000F06B
:100FE000C8FAC9E90001C9F808200AB0BDE8F087CD
:100FF0001CA900007546FFF7F9FEAE4605006946DC
:10100000534620F00700854618B020B5FFF726F9B3
:10101000BDE820404FF000064FF000074FF00008F9
:101020004FF0000B21F00701AC46ACE8C009ACE87A
:10103000C009ACE8C009ACE8C0098D46704710B5DE
:101040000446AFF300802046BDE81040FFF7A5B886
:101050005FEA400C08BF91F0000F4FEA8C234FEA83
:10106000C12243EA51514FEA1C5018BF00F5F0402D
:101070004FEA300018BF41F000415FEA6C5C00F0BD
:101080002980BCF1FF3F08BF40F080407047130C3F
:1010900006BF12044FF0100C4FF0000C130E04BFEB
:1010A00012020CF1080C130F04BF12010CF1040C16
:1010B000930F04BF92000CF1020CD30F04BF520037
:1010C0000CF1010C11464FF00002A0F11F00A0EB43
:1010D0000C00704711F0004F08BF704731F000411D
:1010E0003FF4D5AF0B0C06BF09044FF0100C4FF0C6
:1010F000000C0B0E04BF09020CF1080C0B0F04BF0F
:1011000009010CF1040C8B0F04BF89000CF1020CD7
:10111000CB0F04BF49000CF1010CCCF12003A0EB74
:101120000C0022FA03F302FA0CF241EA030100F187
:101130000100704720F07F4C80EA030023F07F47D6
:10114000ACEB070303F57C5300F0004003F1FF0311
:101150002DE980494FEA154B09B44FEA144325EABB
:101160000B4E24EA03480FF2042606EB1327490826
:101170003E785FEA320203FB0667C7F5000707FB0C
:1011800006F64FEA54374FEAD64606F1020607FB49
:10119000066CCCF1005C4FEA1C472CEA074C07FBBD
:1011A00006F40CFB06F504EB15464FEA961634BF21
:1011B00000204FF000404FEAD13706FB07FC4FEA12
:1011C0001C4C0CFB0BF7D21B03FB0CF761EB07016C
:1011D0000CFB0EF7B0EB074072EB17420CFB08F765
:1011E00034BFA2EB0742B2EB074261EB17414FEA73
:1011F0000C444FEA910706FB07FC4FEA1C4C0CFB22
:101200000BF7B0EBC74072EB573203FB0CF734BF60
:10121000A2EBC742B2EBC74261EB57310CFB0EF7B2
:10122000B0EBC70072EB57720CFB08F734BFA2EBB0
:10123000C702B2EBC70261EB5771039F4FEA8161AE
:1012400041EA921104EBCC044FEAD1374FEA8262B3
:1012500006FB07FC42EA90124FEA80604FEA1C4C02
:101260000CFB0BF7D21B03FB0CF761EB07010CFB2C
:101270000EF7B0EB074072EB17420CFB08F734BFD8
:10128000A2EB0742B2EB074261EB17414FEA8C55E4
:101290004FEA910704EB9C2406FB07FC4FEA1C4C29
:1012A0000CFB0BF7B0EBC74072EB573203FB0CF7AC
:1012B00034BFA2EBC742B2EBC74261EB57310CFB24
:1012C0000EF7B0EBC70072EB57720CFB08F734BF98
:1012D000A2EBC702B2EBC70261EB577115EB4C25CD
:1012E0004FEA816141EA92114FEA82624FEAD137B7
:1012F00042EA901206FB07FC44F100044FEA8060CA
:101300004FEA1C4C0CFB0BF7D21B03FB0CF761EBF9
:1013100007010CFB0EF7B0EB074072EB17420CFB1A
:1013200008F734BFA2EB0742B2EB074261EB17416B
:1013300015EB1C154FEA813141EA92414FEA8232A6
:1013400042EA90424FEA80304FEA0C7644F10004C2
:1013500048EA03434EEA0B484FF0000EB2EB080C8C
:1013600071EB030724BF624639464EEB0E0E4FF079
:10137000000B0018524149414BEB0B0BB2EB080C30
:1013800071EB03077BF1000B24BF624639464EEB3D
:101390000E0E4FF0000B0018524149414BEB0B0B66
:1013A000B2EB080C71EB03077BF1000B24BF624624
:1013B00039464EEB0E0E51EA020718BF46F0010601
:1013C00016EB0E7655F1000254F1000103D5BDE88D
:1013D0008901BDE80088BDE88901BDE80048B6196B
:1013E000524141EB0101A3F10103704780807F7EF0
:1013F0007D7C7B7A7978777676757473727171708B
:101400006F6E6E6D6C6C6B6A6A696868676666653C
:101410006464636362616160605F5F5E5E5D5D5CCA
:101420005C5B5B5A5A59595858575756565555553B
:101430005454535352525251515050504F4F4F4E9B
:101440004E4D4D4D4C4C4C4B4B4B4A4A4A494949E9
:10145000484848474747474646464545454444442B
:10146000444343434342424242414141002B9C4654
:1014700030D477002BD01CB54FEA370703B44FF0B8
:1014800010004FF01001BAF1000F06D0BCF1000FB0
:10149000DCBF40F0080040F008014FF000000FBC36
:1014A000BDE810400BF1010BBBF1010F08BF5FEA73
:1014B000170722BF12F1010211F101014FF00041A3
:1014C00043F1000300F0004043EA00007047F9D305
:1014D0005708D0E746EA064613F1400F4FEA164692
:1014E0001FDD13F1200FDFBF16430A460021203312
:1014F0005B42BED0C3F1200746EA064602FA07F770
:101500004FEA164646EA0706C3F1200722FA03F21D
:1015100001FA07F721FA03F14FF0000342EA07024C
:10152000A7E746EA020646EA06464FEA164646EAB4
:101530000106BCBF46EA0646360C4FF000034FF0EA
:1015400000024FF0000194E72DE9804C9A46934643
:1015500070B491E8380007C831EA400C48BF34EA5B
:10156000430C03D5FFF7E6FDFFF780FFF0BCBDE8B5
:10157000008C2DE9804C9A46934670B491E838006F
:1015800007C810F0804F08BF13F0804F03D100F060
:1015900005F8FFF76BFFF0BCBDE8008C20F07F473B
:1015A00080EA030023F07F4C07EB0C03A3F57C5388
:1015B00000F00040A3F1FE0392F0000F00F0B380B2
:1015C00095F0000F00F077802DE901494FEA1140B6
:1015D0004FEA144621EA004800FB06FC24EA0647CD
:1015E00008FB06F607FB08F800FB07F718EB0648B0
:1015F0004CEB164C4FEA124B18EB07484FEA1546D6
:101600004CEB174022EA0B4E0BFB06FC25EA064783
:101610000EFB06F607FB0EFE0BFB07F71EEB064E56
:101620004CEB164C4FF000061EEB074E4CEB174BE5
:1016300018EB0B0840F1000018EB0E0B58EB0008FC
:1016400040F100008F1A4FF000013CBFC943661BF8
:1016500014BFB5EB040C00213CBFC943F61B4FEA95
:1016600017444EEA8E0E27EA04454FEA1C4704FB56
:1016700007622CEA074C05FB07F70CFB05F604FB99
:101680000CFC16EB074642EB174216EB0C4642EBFE
:101690001C421BEB060658EB0202414146EA9E063D
:1016A00001D5BDE80189B619524141EB0101A3F111
:1016B0000103BDE801894FEA14454FEA114724EAC6
:1016C000054621EA074C05FB07F406FB07F70CFB70
:1016D00006F105FB0CFC11EB074144EB17444FEA04
:1016E000124711EB0C4144EB1C4422EA074C05FB6A
:1016F00007F206FB07F70CFB06F605FB0CFC16EBE6
:10170000074642EB174216EB0C4642EB1C456A18A3
:1017100054F1000148BF7047B619524141EB010135
:10172000A3F10103704795F0000F37D04FEA114243
:101730004FEA144721EA024624EA074C02FB07F16C
:1017400006FB07F70CFB06F402FB0CFC14EB07444A
:1017500041EB17414FEA154714EB0C4441EB1C4198
:1017600025EA074C02FB07F506FB07F70CFB06F61C
:1017700002FB0CFC16EB074645EB174516EB0C4637
:1017800045EB1C42121951F1000148BF7047B619D0
:10179000524141EB0101A3F1010370474FEA1445A7
:1017A0004FEA114724EA054621EA074C05FB07F1F9
:1017B00006FB07F70CFB06F24FF0000605FB0CFCDE
:1017C00012EB074241EB174112EB0C4251EB1C416B
:1017D00048BF7047921841EB0101A3F10103704724
:1017E00070B5044600688168C943C90717D181688C
:1017F00021F00101816000F09FFC05460AE000BF76
:1018000000F09AFC401B022804D920688068C0437D
:10181000C00706D020688068C043C007F0D0002011
:1018200070BDA06A40F01000A062E06A40F00100C4
:10183000E062012070BD0000F8B500260446009665
:1018400000688168C943C9072DD0816841F0010152
:101850008160164816490068B0FBF1F000E0401EB8
:1018600000900028FBD100F067FC054616E000BFA1
:1018700000F062FC401B022810D920688068C04339
:10188000C0070BD0A06A40F01000A062E06A40F0F0
:101890000100E06284F824600120F8BD20688068BF
:1018A000C043C007E4D10020F8BD00006C00002058
:1018B00040420F00FEE770474FF4805000F02EBB0F
:1018C000102000F02BBB72B6FEE70000F8B5002434
:1018D000009490F824202546012A12D0012280F895
:1018E00024204A681F23072A0DD20668776B521EF0
:1018F00002EB820293409F430B6893401F43776340
:1019000019E00220F8BD06680D2A0AD2376BD21FF3
:1019100002EB820293409F430B6893401F4337635F
:1019200009E0F76A0D3A02EB820293409F430B688D
:1019300093401F43F7620A68072306680A2A0AD3FE
:10194000F7680A3A02EB420293409F438B68934048
:101950001F43F76008E0376902EB420293409F4360
:101960008B6893401F4337610A68102A01D0112AFF
:1019700020D1124B02689A4217D193681B0219D4E6
:10198000936843F4000393600968102912D10C494D
:101990000C4A0968B1FBF2F101EB8101490000E05A
:1019A000491E00910029FBD104E0816A41F0200129
:1019B0008162012480F824502046F8BD00240140B3
:1019C0006C00002040420F000068C06C70470000AF
:1019D0002DE9F0414FF0000704003D467ED0A06A9B
:1019E000002628B9E66284F82460204600F07EF8DC
:1019F0002046FFF7F5FEA16AC90600D420B1A06A0F
:101A000040F01000A06269E0A16A21F4885141F021
:101A10000201A1626268E169237B0A4347EA43014C
:101A20000A43A1684FF48077B94209D0012907D051
:101A30005FF0000194F814C0BCF1010F02D00AE07D
:101A40003946F7E7F3B1A36A43F02003A362E36AE0
:101A500043F00103E3622368D3F804C02CF4694C1B
:101A60004CEA010CC3F804C021688B68DFF870C031
:101A700003EA0C0313438B60A168B9420BD0012920
:101A800009D00CE0DFF85CC0A3690CEB43330B43D7
:101A900043F40061DFE7218A0D05A5F58015216873
:101AA000CB6A23F470032B43CB62216889680E4B09
:101AB0001940914208D1E662A16A21F0020141F089
:101AC0000101A162BDE8F081A06A20F0020040F0AF
:101AD0001000A062E06A40F00100E0620120F1E73E
:101AE000FDF7E1FF00E0FFFFFE0E1FFF00B585B030
:101AF0000021009101910291039100680E498842F2
:101B000018D10E48816941F480618161816901F4D5
:101B100080610491816941F00401816180696946B5
:101B200000F004000490102000900320019004486D
:101B300000F000FA05B000BD00280140001002408E
:101B4000000801402DE9F84300270D4604460097A0
:101B500000F0F2FA804620688168C90508D5A06ABD
:101B600040F02000A06284F824700120BDE8F883D2
:101B70004168C90503D4C06A10F4700F2AD002204E
:101B800000F0A2FB3B490968B1FBF0F6206803694D
:101B900039490B424FEA61014FEAA1121FD1C368D4
:101BA0004FEA611C13EA0C0F19D103690B4225D1CE
:101BB000C068104222D1142023E0681C0AD02DB145
:101BC00000F0BAFAA0EB0800A84203D92068006828
:101BD000800725D5206800688007EED52DE00369D1
:101BE0000B4202D1C168114206D0026923490A4260
:101BF00006D1C068084203D1542002E0292000E049
:101C0000FC204643009816E0681C11D02DB100F06E
:101C100093FAA0EB0800A8420AD90098B04207D274
:101C2000A06A40F00400A06284F8247003209DE7BD
:101C30000098401C0090B042E6D321686FF012007B
:101C40000860A06A40F40070A06220688068C0F359
:101C5000424007280CD1207B50B9A06A20F4807044
:101C6000A062A06AC00403D4A06A40F00100A06290
:101C700000207BE76C000020244992244992240034
:101C800070B5044690F8240001280DD0012084F896
:101C900024002046FFF7D0FD02004FF0000005D0E1
:101CA00084F82400104670BD022070BDA16A40F285
:101CB0000123994341F48071A1621F4D23681F499C
:101CC000AB4218D10E6816F4702F14D0A66A46F4F1
:101CD0008016A6620E68760505D5A66A26F400561B
:101CE00046F48056A662A66AF6040AD5E66A26F08D
:101CF0000606E66206E0A66A26F48016A6625E681C
:101D0000E9E7E06284F824006FF0020018602068C0
:101D10008368C3F34243072B05D1A84208D1096861
:101D200011F4702F04D0816841F480118160B9E70B
:101D3000816841F4A001F9E7002801400424014032
:101D400010B590F821100022022905D004218163EA
:101D500080F82020012010BD01680B6823F00E03DD
:101D60000B6001680B6823F001030B6090F84030B2
:101D7000C46B012101FA03F3636080F8211080F83D
:101D80002020104610BD000010B590F8211000244E
:101D9000022903D00421816301243DE001680A681F
:101DA00022F00E020A6001680A6822F001020A604D
:101DB0001A4A0168914201D1012121E0174A1432E7
:101DC000914201D110211BE0144A2832914201D1E5
:101DD000891515E0114A3C32914201D189140FE076
:101DE0000E4A5032914202D14FF4803108E00B4A42
:101DF0006432914202D14FF4801101E04FF08071C2
:101E0000064A083A5160012180F82110002180F82B
:101E10002010416B01B18847204610BD08000240E8
:101E20002DE9FE43064600F087F901200024470310
:101E3000DFF8BC902F4D02908DF804408DF80040E3
:101E4000102E1AD04FF48058464514D1642005F066
:101E5000DFFF4146284800F05DF900280BD18DF8DE
:101E600000403946484600F05AF9022302AA694662
:101E7000286806F01DFEBDE8FE8320A0FEF7E6FB05
:101E800082B21EA11F4801F043FD642005F0C0FF8F
:101E900010211D4800F03EF90128ECD102AA01A949
:101EA000286806F0FFFE01280FD0012217A11A486A
:101EB000FEF78EFA1848FEF7C9FB82B216491148A0
:101EC00001F026FD8DF8044003E09DF8040005288C
:101ED0000AD09DF80400401C8DF8000039464846A1
:101EE00000F01DF90023C1E78DF80040F6E700007F
:101EF000001001404C0000200008014070696E3164
:101F00000A00000020050020000C01407265637685
:101F10005F6661696C2564004A010020044910B5C0
:101F20000A68024202D00860FFF77AFF10BD000085
:101F3000140401402DE9F84FDFF8B8910024A9F10D
:101F4000040B23460F2709F1040AABF1040EC9E084
:101F50000125A5402A40AA427DD1674ED1F804C090
:101F6000ACEB0608B44532D014DCBCF1030F3AD018
:101F700009DCBCF1000F2AD0BCF1010F1CD0BCF170
:101F8000020F31D11DE0BCF1110F17D0BCF1120FBF
:101F90002AD119E0B8F5881F19D006DCB8F5803FC2
:101FA00015D0B8F5801F1FD111E0B8F5001F0ED075
:101FB000B8F5041F18D10AE0CB6815E0CB681B1DEB
:101FC00012E0CB6808330FE0CB680C330CE08B6871
:101FD0002BB1012B4FF0080303D0456104E004232B
:101FE00002E0056100E00023FF2A01D8064601E077
:101FF00000F104064FEA840501D9A5F12005D6F8C1
:10200000008007FA05FC28EA0C0803FA05F548EAFF
:102010000508C6F800804D68ED0062D5374DAE6901
:1020200046F00106AE61AD6924F0030605F0010536
:102030000095334D06EB050CDCF80850A607360F6B
:1020400007FA06F825EA0805DFF8B880404503D10D
:102050004FF0000817E044E0DFF8AC80404502D1C3
:102060004FF001080FE0DFF8A480404502D14FF0A7
:10207000020808E0DFF89880404502D14FF00308DD
:1020800001E04FF0040808FA06F848EA0508CCF821
:1020900008804D68D9F80060ED024D4601D5164321
:1020A00000E096432E604D68DAF80060AD025546B8
:1020B00001D5164300E096432E604D68DBF80060C2
:1020C000AD035D4601D5164300E096432E604D6892
:1020D000DEF80060ED03754601D5164300E0964337
:1020E0002E60641C0D682A46E5407FF431AFBDE8E0
:1020F000F88F000008040140000011100010024099
:102100000000014000080140000C014000100140A7
:10211000001401408068084000D001207047C26868
:1021200021EA02030A4043EA0241016170470AB111
:10213000016170470904FBE70148806870470000AF
:1021400060000020074810B5016841F010010160EF
:10215000032000F0A7F80F2000F006F800F050F878
:10216000002010BD0020024030B505461F4887B052
:10217000C16941F00201C161C06906A900F0020015
:10218000009001A800F0FEF90498B0B100F01AFA2E
:1021900040001749174AB0FBF1F11748491E026089
:1021A000416040F2E7320021C0E903218160816192
:1021B00000F03EFC040003D015E000F003FAE8E76D
:1021C0000D4800F081FC04000DD11D2000F03CF80A
:1021D000102D07D2002229461D2000F043F80748A1
:1021E000056000E0012407B0204630BD0010024029
:1021F00040420F0000040040B006002064000020B0
:102200000F4808B5816941F001018161816901F0E0
:1022100001010091C16941F08051C161C069002292
:1022200000F0805000900F21901E00F01BF8054830
:10223000416821F0E06141F00071416008BD00009B
:102240000010024000000140002809DB00F01F02DE
:10225000012191404009800000F1E020C0F8001108
:1022600070470000F0B40E4B1B680C46C3F302230A
:10227000C3F10705042D00D90425191D072901D232
:10228000002300E0DB1E012606FA05F1491E21406D
:1022900099409E40761E16403143F0BC03F047B98A
:1022A0000CED00E0064900F0070208684FF6FF0356
:1022B000184040EA0220034A1043086070470000BB
:1022C0000CED00E00000FA0510B501460020234C9B
:1022D000012922D0022939D010291DD16168226834
:1022E000D20119D51E48C1F38342C903805C0AD5C7
:1022F00061681B4AC1F34041921E515C194AB2FB0E
:10230000F1F1484301E0184948436168490203D4A8
:1023100040000321B0FBF1F010BD226AC2F301219D
:10232000012903D1920701D5C80310BD022905D1A7
:10233000626A920702D549F6404010BD0329FCD1DC
:1023400021688903F9D54FF2244010BD00F04AF905
:102350006168C1F38131491C4900DBE7001002408C
:1023600060A4000800127A0000093D002DE9F8433E
:1023700005460078354CC00754D0E0690026C000FF
:1023800008D4E06940F08050E061E069012600F087
:10239000805000902E480168C90512D4016880461B
:1023A00041F480710160FFF7C7FE074605E000BFFA
:1023B000FFF7C2FEC01B642823D8D8F80000C00570
:1023C000F6D5206A10F4407021D0A98801F440713C
:1023D00081421CD0206A1F49012220F440700A600B
:1023E00000220A602062C00711D0FFF7A5FE074651
:1023F00041F2883808E000BFFFF79EFEC11B41454F
:1024000002D90320BDE8F883206A8007F4D5206A4A
:10241000696820F44070084320621EB1E06920F032
:102420008050E0612878800705D56068A96820F4AD
:102430004040084360602878C00605D56068E968B8
:1024400020F48000084360600020DBE700100240B9
:1024500000700040400442422DE9F0470F4605005D
:1024600061D0434E306800F00700B84209D23068AE
:1024700020F0070038433060306800F00700B842B1
:1024800051D128683B4C810712D5400703D56068BD
:1024900040F4E06060602878000703D5606840F48D
:1024A000605060606068A96820F0F00008436060D8
:1024B0002878C00728D06868012810D02168022831
:1024C00010D0890700292EDA616821F00301014349
:1024D0006160FFF731FE804641F288390DE02168E6
:1024E0008903EFE78901EDE7FFF726FEA0EB08017E
:1024F000494502D90320BDE8F0876068696800F0AB
:102500000C00B0EB810FEFD1306800F00700B8424B
:102510000BD9306820F0070038433060306800F095
:102520000700B84201D00120E5E72878400705D52B
:102530006068E96820F4E06008436060287800077C
:1025400006D56068296920F4605040EAC1006060E7
:1025500000F058F86168084AC1F30311515CC840A3
:102560000649086006480068FFF7FEFD0020C2E744
:10257000002002400010024070A400086C000020FF
:10258000640000200F2202600C4A536803F003032A
:102590004360536803F0F0038360536803F4E0631F
:1025A000C36052684FF4E06303EAD2020261044858
:1025B000006800F00700086070470000001002404B
:1025C000002002400448054900684968044AC1F3F4
:1025D0000221515CC84070476C000020001002408E
:1025E00080A400080448054900684968044AC1F30A
:1025F000C221515CC84070476C00002000100240AE
:1026000080A400080E4A51680E4801F00C03042B08
:1026100011D0082B0FD10C48C1F38343C903C05C10
:102620000AD55168084AC1F34041921E515C054ADF
:102630005043B0FBF1F07047044948437047000035
:102640000010024000127A004EA4000800093D006C
:102650002DE9F84F040070D02078C04DC00749D054
:102660006868C0F38100012807D06868C0F3810062
:10267000022809D16868C00306D52868800339D5C7
:1026800060680028E7D035E06068B0F5803F0BD087
:1026900010B1B0F5A02F11D0286820F48030286048
:1026A000286820F4802002E0286840F48030286008
:1026B000606890B1FFF740FD06460AE0286840F4E4
:1026C00080202860F0E700BFFFF736FD801B6428FC
:1026D00073D828688003F7D50CE0FFF72DFD064678
:1026E00005E000BFFFF728FD801B6428F0D82868AC
:1026F0008003F7D420789A4E80074FF001094FF0FD
:10270000000839D5686810F00C0F07D06868C0F36E
:102710008100022809D16868C00306D428688007B0
:1027200014D52069012808D110E02069B0B1C6F89D
:102730000090FFF701FD074605E00AE1FFF7FCFC0A
:10274000C01B0228C4D828688007F7D528686169AB
:1027500020F0F80040EAC10028600DE0C6F80080D3
:10276000FFF7EAFC074604E0FFF7E6FCC01B02287F
:1027700023D828688007F7D4207800072CD579481B
:10278000A169D9B1C0F80090FFF7D6FC074604E074
:10279000FFF7D2FCC01B02280FD8686A8007F7D564
:1027A00071484FF4FA510068B0FBF1F0009000BF9F
:1027B0000098411E0091FAD20EE080E0C0F800803F
:1027C000FFF7BAFC074604E0FFF7B6FCC01B02287F
:1027D00075D8686A8007F7D42078400760D5E86923
:1027E0000027C00008D4E86940F08050E861E8693B
:1027F000012700F0805000905C480168C90513D49F
:102800000168834641F480710160FFF795FC8246C0
:1028100006E000BFFFF790FCA0EB0A0064284ED84A
:10282000DBF80000C005F5D5E06801280AD008B142
:10283000052813D0286A20F001002862286A20F0B9
:10284000040002E0286A40F001002862E06841F2DA
:10285000883B98B1FFF770FC82460BE0286A40F095
:1028600004002862EEE700BFFFF766FCA0EB0A0158
:1028700059455AD8286A8007F6D50CE0FFF75CFC6A
:10288000824605E0FFF758FCA0EB0A0159454CD8F9
:10289000286A8007F6D41FB1E86920F08050E8610B
:1028A000E06988B36968C1F38101022944D0022834
:1028B000C6F8608004D0FFF73FFC044638E034E0FF
:1028C000FFF73AFC074604E0FFF736FCC01B02287E
:1028D0002BD828688001F7D4206AB0F5803F05D155
:1028E0006868A16820F4003008436860D4E90801F2
:1028F0000843696821F4741108436860C6F8609061
:10290000FFF71AFC044606E025E000BFFFF714FCC1
:10291000001B022809D828688001F7D51BE000BFFA
:10292000FFF70AFC001B022802D90320BDE8F88F3C
:1029300028688001F4D40EE00128F7D06868226A84
:1029400000F48031914204D1616A00F47010884231
:1029500001D00120EAE70020E8E700000010024073
:1029600000004242800442426C000020007000409F
:102970007047704710B590F83C20012A22D0012200
:1029800080F83C20CA688C6822F4407222434C686C
:1029900022F4806222430C6822F4006222430C6914
:1029A00022F4805222434C6922F400522243C96926
:1029B000002322F480420A4301684A6480F83C30D4
:1029C000002010BD022010BD70B590F83C20012AF7
:1029D00026D0012480F83C40022280F83D20036884
:1029E0005A689D6822F070060A6832435A600D4B9F
:1029F00002689A4208D0B2F1804F05D00A4B9A4241
:102A000002D00A4B9A4204D1496825F08003194349
:102A1000916080F83D40002180F83C10084670BD70
:102A2000022070BD002C014000040040000800405E
:102A300010B5040003D094F83D0010B107E0012068
:102A400010BD002084F83C00204600F01FF8022052
:102A500084F83D00211D206802F0C4FA012084F8AA
:102A6000460084F83E0084F83F0084F8400084F873
:102A7000410084F8420084F8430084F8440084F85C
:102A8000450084F83D00002010BD000008B5006836
:102A90000B49884212D10B48816941F40061816180
:102AA0008069002200F40060009005211920FFF7E2
:102AB000D9FBBDE808401920FFF7C6BB08BD0000E0
:102AC000002C01400010024090F83D10012901D077
:102AD00001207047022180F83D100168CA6842F069
:102AE0000102CA6000680B49884208D0B0F1804FEB
:102AF00005D00949884202D00849884204D181683A
:102B000001F00701062903D0016841F001010160CD
:102B100000207047002C01400004004000080040E5
:102B200070B5044690F83C000025012817D0012616
:102B300084F83C60022084F83D002068826822F01E
:102B4000770222F47F4282600868502838D00DDC7A
:102B500020284FD005DC90B3102811D14AE0022084
:102B600070BD302846D040280AD13BE060282FD0E5
:102B700070280DD0B0F5805F03D0B0F5005F12D0A3
:102B8000012584F83D60002084F83C00284670BD93
:102B9000CB68D1E90121206802F06DFA20688168D4
:102BA00041F0770109E0CB68D1E90121206802F00A
:102BB00062FA2068816841F480418160E1E719E0B0
:102BC000CA684968206802F00BFB5021206806E0C3
:102BD000CA684968206802F014FB6021206802F08E
:102BE00054FACEE7CA684968206802F0F9FA402131
:102BF0002068F4E7226801461046F0E72DE9F0412D
:102C00000D46040003D094F83D0018B108E00120FF
:102C1000BDE8F081002084F83C00204600F040F838
:102C2000022084F83D002068816844F20702914345
:102C30008160211D206802F0D5F9226890689169B1
:102C4000166A2B68AF69034340F20330814341EABF
:102C50000721A868EF6908434FF6FC418843E968FB
:102C600040EA0720014328692F6A000140EA073043
:102C7000084369686D6926F0220646EA051529436E
:102C800093602268906154F8460B0162012004F8B9
:102C90001F09E0752076E0762077A0750020B7E761
:102CA00000B585B000210091019102910391026865
:102CB00023480121B2F1804F24D0224B9A421FD1E8
:102CC000C26942F00402C261C26902F004020492C5
:102CD000826942F0080282618069029100F0080076
:102CE0000490C020009069461748FFF723F900229E
:102CF00005211E20FFF7B6FA5FF01E00FFF7A4FAC9
:102D000005B000BDC26942F00102C261C26902F0B1
:102D100001020492826942F0040282618069029198
:102D200000F0040004900320009069460748FFF774
:102D300001F9002205211C20FFF794FA1C20DDE791
:102D40000010024000080040000C01400008014053
:102D500070B590F83E60044690F83F5090F84230CD
:102D600090F84320022021B104290ED0012E1BD15E
:102D700014E0012E18D1012B16D184F83E0084F8FE
:102D8000420001220021206820E0012D0CD1012AFF
:102D90000AD184F83F0084F8430014E0012D03D1E8
:102DA000012B01D1012A01D0012070BD84F83E0021
:102DB00084F83F0084F8420084F843000122002197
:102DC000206802F04BF901220421206802F046F944
:102DD0002068016841F001010160002070BD70476A
:102DE0002DE9F04104460068C66805694FF0000708
:102DF000A90713D5B10711D5F91E0161012020776C
:102E0000206880698007204602D0FFF7E8FF04E0D1
:102E100000F0A4F8204600F036F92777680716D5A9
:102E2000700714D521686FF0040008610220207734
:102E30002068806910F4407F204602D0FFF7CFFF62
:102E400004E000F08BF8204600F01DF927772807F2
:102E500015D5300713D521686FF0080008610420EC
:102E600020772068C0698007204602D0FFF7B7FFAF
:102E700004E000F073F8204600F005F92777E80633
:102E800016D5F00614D521686FF0100008610820EF
:102E900020772068C06910F4407F204602D0FFF7F9
:102EA0009EFF04E000F05AF8204600F0ECF8277787
:102EB000E80708D0F00706D021686FF0010008612C
:102EC000204600F02FF9280608D5300606D52168DF
:102ED0006FF0800008612046FFF74AFD680608D5BC
:102EE000700606D521686FF040000861204600F0AA
:102EF000BFF9A8060AD5B00608D521686FF02000F2
:102F000008612046BDE8F041FFF733BDBDE8F08120
:102F100000B585B0002100910191029103910068F4
:102F20000B49884212D10B48816941F0040181614B
:102F30008069694600F0040004904FF4106000902E
:102F40000220019003900448FEF7F4FF05B000BD95
:102F5000002C01400010024000080140704770B58D
:102F6000044690F83C0000260D4601280FD00120B1
:102F700084F83C006AB1042A1DD0082A2FD00C2AFC
:102F80003FD00126002084F83C00304670BD02206E
:102F900070BD206802F082F82068816941F0080164
:102FA00081612068816921F0040181612068816963
:102FB0002A69114311E0206802F098F820688169BD
:102FC00041F4006181612068816921F4806181613F
:102FD000206881692A6941EA02218161D2E720687B
:102FE00002F0B0F82068C16941F00801C1612068B1
:102FF000C16921F00401C1612068C1692A691143D6
:1030000011E0206802F0CAF82068C16941F400614B
:10301000C1612068C16921F48061C1612068C16912
:103020002A6941EA0221C161ACE710B5040003D06E
:1030300094F83D0010B107E0012010BD002084F895
:103040003C00204600F01EF8022084F83D00211DBF
:10305000206801F0C7FF012084F8460084F83E0094
:1030600084F83F0084F8400084F8410084F842006E
:1030700084F8430084F8440084F8450084F83D0057
:10308000002010BD7047704710B50446022249B1B8
:1030900004290ED0082913D094F84100012816D035
:1030A000012010BD94F83E000128F9D184F83E209B
:1030B0000FE094F83F000128F2D184F83F2008E0A7
:1030C00094F840000128EBD184F8402001E084F816
:1030D00041200122206801F0C1FF0F492068884289
:1030E00003D1426C42F4004242642068884208D016
:1030F000B0F1804F05D00949884202D00849884282
:1031000004D1816801F00701062903D0016841F06C
:1031100001010160002010BD002C014000040040AE
:10312000000800402DE9F05F444988427ED1444CBC
:10313000E088401C86B20520B6FBF0F100FB116070
:10314000E6800025F0BB3F480268506A3E49404295
:1031500000B260800B685B6A1FB2A7805562096885
:103160004D6206F033FFDFF8E4A0514606F05AFF47
:1031700006F05AFDDFF8D8804FF0333B5A464346FD
:1031800006F0D0F8DFF8CC9000224B4606F0CAF8E3
:10319000AA1E07F0BCF805F0D7FFA060384606F07D
:1031A00015FF514606F03EFF06F03EFD5A464346E7
:1031B00006F0B8F800224B4606F0B4F8AA1E07F055
:1031C000A6F800E002E005F0BFFFE0600A20B6FBD1
:1031D000F0F100FB116000282DD1A06806F024FD5D
:1031E0001D4A1E4B06F046FA00221D4B06F042FA1D
:1031F000DFF8708006460F46D8F8000006F014FD90
:1032000032463B4605F0D2FF05F09EFFC8F80000AD
:103210001548E16801F0A2FA06F09CFE0646134844
:10322000A16801F09BFA06F095FE00E003E031464C
:1032300001F0A6F8E580BDE8F09F00000004002042
:103240005000002090040020480400200000C842E4
:1032500033332340000026407B14AE47E17A943F8D
:10326000000036401C00002008140020E813002055
:103270007047704770470000F8B501680446086859
:10328000CA684B6910F00F0F4FF0000559D003F0DA
:10329000010602F49077374365D0C10705D0D10508
:1032A00003D5616C41F001016164410705D5D9077F
:1032B00003D0616C41F002016164810705D5D90733
:1032C00003D0616C41F004016164010707D502F08D
:1032D0002001314303D0616C41F008016164616CED
:1032E00000293AD0800604D5900602D5204601F088
:1032F000C9FF20684069616CC0F38010090700D4E1
:1033000060B3204601F097FF20684069400621D550
:103310002068143050E8001F21F0400140E80012FE
:10332000002AF5D1E06BA8B16D494163E06BFEF76F
:103330002BFD002811D0E06B416B01B0BDE8F040DF
:10334000084783060FD593060DD52046BDE8F84003
:1033500001F098BF2046FFF78DFFF8BD2046FFF72C
:1033600089FF6564F8BD266B2023012E7CD1C6063B
:103370007AD5D60678D508684868009048694FF035
:103380000206400640D5E16B086840680004000C66
:10339000E8D0A28D8242E5D9E085886920282DD029
:1033A00020680C3050E8001F21F4807140E80012C2
:1033B000002AF5D12068143050E8001F21F00101E7
:1033C00040E80012002AF5D12068143050E8001FB0
:1033D00021F0400140E80012002AF5D184F8423083
:1033E000256320680C3050E8001F21F0100140E8F0
:1033F0000012002AF5D1E06BFEF7A2FC6663A08DF7
:10340000E18D401A81B22AE0A08DE18D401A81B28F
:10341000E08D0028A6D00029A4D022680C3252E802
:10342000000F20F4907042E80007002FF5D12068CB
:10343000143050E8002F22F0010240E80027002F4E
:10344000F5D184F84230256320680C3050E8002F15
:1034500022F0100240E80023002BF5D166632046DD
:10346000FFF707FFF8BDFFE705062BD5150629D5A1
:1034700094F841002128F5D1A068B0F5805F01D112
:103480002069B0B1206A411C21622168007848603F
:10349000E08C401E0004000CE084E3D12068C16889
:1034A00021F08001C1602068C16841F04001C16025
:1034B000D8E7206A0088C0F308004860206A801CB2
:1034C0002062E5E74006CDD55006CBD5CA68204638
:1034D00022F04002CA6084F8413000F032FAC1E7BD
:1034E0002752000870B5040004D094F8410000256C
:1034F00010B106E0012070BD84F84050204600F075
:1035000023F8242084F841002068C16821F4005188
:10351000C160204601F018FF2068016921F4904144
:1035200001612068416921F02A0141612068C16878
:1035300041F40051C1606564202084F8410084F8A2
:1035400042006563002070BDF0B585B00024009492
:103550000194029403940368424F022042490322DB
:10356000424D4602BB4225D18B6943F480438B61B7
:103570008B6903F4804304938B6943F004038B61EC
:103580008969039201F0040104910102CDE9001060
:1035900069462846FEF7CEFCCDE900646946284618
:1035A0000294FEF7C7FC002205212520FEF75AFEF3
:1035B000252028E02E4FBB4229D1CB6943F40033AC
:1035C000CB61CB6903F4003304938B6943F00403AC
:1035D0008B618969039201F0040104910421CDE912
:1035E000001069462846FEF7A5FC0820CDE9000436
:1035F000694628460294FEF79DFC002205212620FC
:10360000FEF730FE2620FEF71FFE05B0F0BD194D77
:10361000AB42FAD1CB6943F48023CB61CB6903F48D
:10362000802304938B6943F008038B618969124DF1
:1036300001F00801CDE90321CDE900606946284683
:10364000FEF778FCE814CDE90004694628460294A8
:10365000FEF770FC002205212720FEF703FE27203D
:10366000D1E700000038014000100240000801408E
:103670000044004000480040000C01402DE9F84F94
:10368000044690F842009A4616460D46202802D07D
:103690000220BDE8F88FB5B1AEB1002060642221F0
:1036A00084F842102063FEF747FDA6858146E68533
:1036B000A0684FF480582027404501D1206920B1EF
:1036C0002E46002529E00120E3E7002625E04B46B1
:1036D000002220212046CDF800A001F0ACFE18B158
:1036E00084F842700320D4E726B1A06840451AD080
:1036F00038B108E020684068C0F3080025F8020BE4
:1037000008E0206978B12068406800F07F0000BFC1
:1037100006F8010BE08D401EE085E08D0028D6D133
:1037200084F84270B5E720684068F1E790F84230CD
:10373000202B01D00220704721B11AB1002303636E
:1037400001F05EBE01207047FEB50025404902959C
:103750008DF804508DF80050884278D13D4C4FF0E0
:103760007E562078412803D13046314603F04EFB87
:103770002078422803D13848014603F047FB2078DF
:10378000432803D10021084603F040FB20784FF086
:103790008047442803D13946304603F037FB207870
:1037A000452803D13146384603F030FB20784628BF
:1037B00001D103F05FFB2078472801D103F048FBDB
:1037C00020782649264E482805D049280AD0254E7B
:1037D0004A280FD027E0244A3068904232DC06F0B5
:1037E0004FFA05E0214A306890422BD806F0E6FCFB
:1037F000306027E002AA01A9306805F053FA0128D9
:1038000002D08DF8045003E09DF8040005280ED086
:103810009DF80400401C8DF80000002302AA6946B0
:10382000306805F045F920784B2803D00AE08DF880
:103830000050F2E78DF80050022302AA6946306872
:1038400005F036F9012203490148FFF76FFFFEBD7D
:103850006805002000000020000080BF0000B44286
:10386000681400204C00002000003443000034C3E2
:103870002DE9F843044690F84100984616460D4657
:10388000202802D00220BDE8F88385B17EB1002057
:103890006064212084F84100FEF74EFCA684814636
:1038A000E684A0682027B0F5805F02D003E0012005
:1038B000E9E7206910B12E4600250EE000260CE055
:1038C0008021204601F0B7FDA8B9C6B116F8010B5A
:1038D00021684860E08C401EE084E08C4B464FF04D
:1038E0000002CDF800800028EAD14FF040012046C8
:1038F00001F0A1FD40B184F841700320C3E735F821
:10390000020BC0F30800E3E784F841700020BAE737
:1039100090F84130202B01D00220704779B172B16C
:1039200001628284C28400214164212180F8411017
:103930000068C16841F08001C1600020704701202B
:1039400070477047064908B50968064AC908B1FBBF
:10395000F2F14143009100BF491E0091FBD208BD26
:103960006C00002040420F0070B5204D0024012261
:1039700020212846FEF7DBFB0F20FFF7E3FF0022A4
:1039800020212846FEF7D3FB194E1A4D07E00120EF
:10399000641CFFF7D7FFB44201D9174870BD40211E
:1039A0002846FEF7B7FB0028F1D0002408E00120EC
:1039B000641CFFF7C7FFB44202D94FF0404070BD0E
:1039C00040212846FEF7A6FB0128F0D0600005F054
:1039D0003DFE0A4A0A4B05F04DFE4FF0FF3206F05D
:1039E00096FCBDE8704005F0AFBB0000000C014044
:1039F000A086010000080140000080BF4C378941CB
:103A000060E5A03FFEE7000070B5144D4FF48074F0
:103A1000002221462846FEF78AFB2A1D106820F066
:103A2000F0001060106840F030001060002261006B
:103A30002846FEF77CFB022004F0EAF90122214629
:103A40002846FEF774FB022004F0E2F921462846DE
:103A5000BDE870400022FEF76ABB0000000C014088
:103A60007047000070B5144D4FF480740022214659
:103A70002846FEF75CFB2A1D106820F0F00010605D
:103A8000106840F030001060012251022846FEF715
:103A90004EFB022004F0BCF9012221462846FEF725
:103AA00046FB022004F0B4F921462846BDE87040E8
:103AB0000022FEF73CBB0000000C01402DE9F0475E
:103AC00080461B480024016821F0F0010160016874
:103AD00041F08001016086152546071F4FF40079EB
:103AE000002231463846FEF722FB022004F090F90E
:103AF000012231463846FEF71AFB6006040E49469D
:103B00003846FEF707FB08B1641CE4B2022004F05B
:103B10007FF96D1CEDB2082DE2D3B8F1000F04D08F
:103B2000FFF772FF2046BDE8F087FFF79BFFF9E73C
:103B3000040C01402DE9F04105461A48016821F0C6
:103B4000F0010160016841F0300101608615071F36
:103B5000002231463846FEF7EAFA00244FF4007896
:103B6000280601D5012200E0002241463846FEF732
:103B7000DEFA6806050E012231463846FEF7D7FA0E
:103B8000022004F045F9002231463846FEF7CFFA0C
:103B9000022004F03DF9641CE4B2082CE0D3BDE837
:103BA000F0810000040C014070B51448016821F058
:103BB000F0010160016841F0300101604415051F0A
:103BC000012221462846FEF7B2FA012216023146AA
:103BD0002846FEF7ACFA022004F01AF9002221462A
:103BE0002846FEF7A4FA022004F012F931462846CE
:103BF000BDE870400022FEF79ABA0000040C0140B4
:103C000070B51448016821F0F0010160016841F0CD
:103C1000300101608415051F002221462846FEF769
:103C200086FA6600002231462846FEF780FA022016
:103C300004F0EEF8012221462846FEF778FA012228
:103C400031462846FEF773FABDE87040022004F0C2
:103C5000DFB80000040C01402DE9F04119480024B0
:103C6000016821F0F0010160016841F0800101600C
:103C70004615051F012231462846FEF758FA022054
:103C800004F0C6F80122170239462846FEF74FFA1B
:103C9000022004F0BDF808E0641CE4B2FA2C04D958
:103CA000FFF7AEFF0120BDE8F08131462846FEF760
:103CB00031FA0028F0D1002239462846FEF737FABB
:103CC0000020F0E7040C014010B5FFF7C9FE802189
:103CD0006B2000F0CEF84FF47A7004F099F81AA037
:103CE000FCF76AFB00216B2000F0C3F8032000F012
:103CF0008CF8002000F084F8322000F0A3F80021B6
:103D0000382000F0B6F800216A2000F0B2F8002157
:103D1000232000F0AEF88021372000F0AAF87520AB
:103D200000F01AF8682801D0012010BD01216B2095
:103D300000F09FF800216C2000F09BF8322000F08A
:103D400081F8002010BD000068616C64656C6179C9
:103D5000206F7665720A000010B50446FFF724FF55
:103D6000D020FFF7E7FEFFF777FF2046FFF7E2FEE0
:103D7000FFF772FFFFF718FFD120FFF7DBFEFFF719
:103D80006BFF0020FFF79AFE0446FFF739FF20463D
:103D900010BD00002DE9F0411D4614460F460646B1
:103DA000FFF702FF7006000EFFF7C4FEFFF754FF97
:103DB00020B1FFF725FF0120BDE8F0813846FFF76D
:103DC000B9FEFFF749FFFFF7EFFE012000EB4600C9
:103DD000C0B2FFF7AFFEFFF73FFF09E0012C0DD0A7
:103DE0005FF00100FFF76AFE641E05F8010BE4B204
:103DF000002CF3D1FFF704FF0020DDE70020F1E7FE
:103E0000C006010E1C2000F034B8C006010E1B20B5
:103E100000F02FB8BC2801D3012110E0622801D3A3
:103E200002210CE02A2801D3032108E0142801D341
:103E3000042104E00A2801D3052100E006211A200C
:103E400000F017B810B504464FF47A70844201D9D7
:103E5000044602E0042C00D20424B0FBF4F0401E1F
:103E6000C1B2192000F005F86008BDE81040FFF766
:103E7000D1BF70B50C460546FFF796FED020FFF780
:103E800059FEFFF7E9FE50B92846FFF753FEFFF74A
:103E9000E3FE2046FFF74EFEFFF7DEFE18B1FFF708
:103EA000AFFE012070BDFFF7ABFE002070BD2DE915
:103EB000F0411E4615460F460446FFF775FE6006A4
:103EC000000EFFF737FEFFF7C7FE60B93846FFF771
:103ED00031FEFFF7C1FE00240CE0305DFFF72AFE43
:103EE000FFF7BAFE20B1FFF78BFE0120BDE8F0819D
:103EF000641CE4B2AC42F0D3FFF782FE0020F5E789
:103F00003EB500211148009101910F4A02910260D3
:103F100081600173017501244FF460220461C26164
:103F20004160FDF755FD08B1FDF7CDFC0420CDE95A
:103F300000040220029069460448FDF7C7FC0028EF
:103F400001D0FDF7C0FC3EBD00280140D003002099
:103F500010B59AB000F0E8FA00F04DFA00F0B6FBA8
:103F6000164B15AC0FCB84E80F00002115A803F009
:103F70006DFF134C11491C22A06410316846FCF7F8
:103F8000C9FB0021684603F074FF0C49E0631C2262
:103F90002C3107A8FCF7BEFB002107A803F069FF3E
:103FA000064920641C2248310EA8FCF7B3FB00210F
:103FB0000EA803F05EFF60641AB010BDE8A300080D
:103FC000040000202DE9F04786B000244E480094FC
:103FD000019402940394816941F010018161816927
:103FE00001F010010491816941F020018161816932
:103FF00001F020010491816941F00401816181692E
:1040000001F004010491816941F008018161806936
:104010003E4F00F008004FF400550490002229465E
:104020003846FEF784F8DFF8E8A001224FF49851F3
:104030005046FEF77CF8002242F228015046FEF777
:1040400076F8DFF8D0904FF4004801224146484608
:10405000FEF76DF80095022601250396CDE901547F
:1040600069463846FDF766FFE020CDE90004694661
:1040700048460294FDF75EFF0320CDE9000469463F
:1040800050460294FDF756FF2F03CDE90075CDE9A8
:10409000025669465046FDF74DFF42F22830CDE901
:1040A0000005CDE9024669465046FDF743FF1A4830
:1040B0000097CDE9010569464846FDF73BFFCDE98C
:1040C0000085CDE9025669464846FDF733FF1020CA
:1040D00000901248CDE9010669465046FDF72AFFD7
:1040E000002205210A20FEF7BDF80A20FEF7ACF8F1
:1040F000002205212820FEF7B5F82820FEF7A4F8B5
:1041000006B0BDE8F087000000100240001001403A
:10411000000C0140000801400000211000001110B7
:1041200010B596B000240F94109411941294139427
:104130001C2168461494FCF727FB202107A8FCF7F4
:1041400023FB2D482B49016040F29F51C0E9011427
:104150006321C0E903148021C0E90541FEF768FC32
:1041600008B1FDF7B0FB4FF480500F900FA9224823
:10417000FEF7D6FC08B1FDF7A6FB1F48FEF755FF7A
:1041800008B1FDF7A0FB139413A91B481494FEF784
:104190001BFC08B1FDF797FB602000903220CDE9B1
:1041A000010403940494059400226946124806947D
:1041B000FEF7D5FE08B1FDF786FB0C2269460E48D6
:1041C000FEF7CDFE08B1FDF77EFB07940894099435
:1041D0004FF400500A94CDE90B4007A906480E940D
:1041E000FEF7C8FB08B1FDF76EFB0348FEF790FE33
:1041F00016B010BD002C01400004002010B58CB09A
:1042000024216846FCF7C0FA0024164809944FF0B0
:1042100080410A94C0E900144FF6FF71C0E90241E1
:10422000046184610320CDE900040120CDE902048A
:1042300006210491CDE90540CDE9074169460948C9
:10424000FEF7DCFC08B1FDF73EFB099409A905481F
:104250000A94FEF7B9FB002801D0FDF734FB0CB03F
:1042600010BD00004804002010B58CB02421684621
:10427000FCF78AFA00241648099414490A94C0E904
:1042800000144FF6FF71C0E902410461846103200C
:10429000CDE900040120CDE9020406210491CDE915
:1042A0000540CDE9074169460948FEF7A7FC08B17A
:1042B000FDF709FB099409A905480A94FEF784FB58
:1042C000002801D0FDF7FFFA0CB010BD0008004037
:1042D000900400200C4810B50A4901604FF4E13108
:1042E0004160002181600C22C160C0E9041281613B
:1042F000C161FFF7F7F8002803D0BDE81040FDF7D3
:10430000E2BA10BD00380140D80400200C4810B5B6
:104310000A4901604FF4E1314160002181600C22C3
:10432000C160C0E904128161C161FFF7DBF80028B8
:1043300003D0BDE81040FDF7C6BA10BD00440040F0
:10434000200500200C4810B50A4901604FF4E13106
:104350004160002181600C22C160C0E904128161CA
:10436000C161FFF7BFF8002803D0BDE81040FDF79A
:10437000AABA10BD0048004068050020FEE7000012
:1043800070B51A4E4542C1F1000401D5012200E08A
:10439000002208213046FDF7CAFE4FF40051002CE0
:1043A00001DA012200E000223046FDF7C0FE10488D
:1043B0006FF06201002D05DA8D4200DA0D4664359A
:1043C000026803E0632D00DD632502685563002C5D
:1043D00005DA8C4200DA0C460068643403E0632C92
:1043E00000DD63240068046470BD0000000C01401F
:1043F00000040020FEE770B500240021204600F0F4
:10440000E9F80025002000F04FF96D1CEDB2802D79
:10441000F8D3641CE4B2082CEFD370BD10B5FFF7DD
:10442000D1FD0122D1030548FDF781FE0122BDE83F
:10443000104011030248FDF77ABE00000008014059
:10444000000C01402DE9F047DFF860A0184D074649
:1044500000244FF080084FF480594FF4004600BF0D
:1044600028FA04F0384201D0012200E00022494637
:104470005046FDF75CFE012231462846FDF757FE07
:10448000002231462846FDF752FE641CE4B2082C97
:10449000E6D3012231462846FDF749FE314628463B
:1044A000BDE8F0470022FDF742BE0000000C0140CD
:1044B000000801402DE9F04101220C4D1403214672
:1044C0002846FDF734FE0122094FD603314638460F
:1044D000FDF72DFE002221462846FDF728FE314635
:1044E0003846BDE8F0410022FDF721BE000C014036
:1044F0000008014070B50A4D4FF480540022214657
:104500002846FDF714FE0122D1030648FDF70FFEF1
:1045100021462846BDE870400122FDF708BE000094
:10452000000C01400008014010B500204FF47A72E1
:104530000021491C9142FCD3401C9042F8D3FFF764
:104540006DFFAE2000F09FF8D52000F09CF8802091
:1045500000F099F8A82000F096F83F2000F093F8BA
:10456000D32000F090F8002000F08DF8402000F0FB
:104570008AF8A12000F087F8C82000F084F8DA203B
:1045800000F081F8122000F07EF8812000F07BF826
:10459000CF2000F078F8D92000F075F8F12000F075
:1045A00072F8DB2000F06FF8302000F06CF8A420E7
:1045B00000F069F8A62000F066F88D2000F063F89E
:1045C000142000F060F8AF2000F05DF8BDE8104066
:1045D000FFF711BF10B50C4640F0B00000F053F8E3
:1045E000102040EA141000F04EF804F00F00BDE86F
:1045F000104000F048B800002DE9F0410746CE0019
:104600004000083E801E15464FF0FF38F1B2C0B2A0
:10461000FFF7E0FF1148002400EB05152819A0F56D
:10462000805090F8000E00F03FF8641CE4B2082CB3
:10463000F4D308EB4700F1B2C0B2FFF7CBFF002480
:104640002819A0F5805090F8080E00F02DF8641C91
:10465000E4B2082CF4D3BDE8F081000088A400087F
:104660002DE9F04115460E460746002406E03019B4
:10467000C1B23846FFF7C0FF641CE4B22A5D002ACD
:10468000F5D1BDE8F08110B50446FFF713FF78209F
:10469000FFF7D8FE0020FFF7D5FE2046FFF7D2FE39
:1046A000BDE81040FFF726BF10B50446FFF702FF34
:1046B0007820FFF7C7FE4020FFF7C4FE2046FFF733
:1046C000C1FEBDE81040FFF715BF00001D490020E6
:1046D00001F1100C4860086088601B4A1B4BC860E1
:1046E0008CE80D00C861203101F1100C48600860B1
:1046F0008860C8608CE80D00C86120314FF04043ED
:10470000486008608860C860C1E904034FF07E53C8
:10471000C1E906032031C1E9002088604FF03F4223
:10472000C860C1E904020A4AC1E906202031094AE9
:10473000486008608860C860C1E904028861064872
:10474000C8617047E813002000002041000040408D
:104750006F1283BA0AD7A33CCDCCCC3D2DE9F041F2
:104760000446006805F02AFD0546A0602946206938
:1047700005F086FA206107462846E16805F01EFD2F
:10478000E16905F04FFC06463946A06905F04AFC90
:1047900007462946606905F045FC394605F070FA80
:1047A000314605F06DFAE5606060BDE8F08100001B
:1047B00086B0AA4DDFF8A882DFF8A8A2DFF8A89299
:1047C00000262C46002204A9A06C04F0D1F960B1A7
:1047D0009DF8100001280BD0022805D003286ED0C8
:1047E00004286DD005286CD034E18DF8106031E1DB
:1047F0009E4F20213846FDF78DFC287080213846D9
:10480000FDF788FC9A4F687001213846FDF782FC5D
:10481000A87002213846FDF77DFCE870297819B1AF
:1048200001291BD021B132E0697821B1012910D0D2
:10483000697811B12BE0A97829B1A97801291CD098
:1048400011B11BD023E010B101281CD01FE066601D
:104850001DE0A978D9B9D0B9864817E0697811B1B7
:10486000012905D013E0A97889B980B982480DE003
:10487000A97861B958B9814808E010B1012804D07D
:1048800005E07F4802E07F4800E07F4860607F48A5
:104890006168FFF763FF83464FF08041E06105F0F8
:1048A000EFF90746206259464FF0804005F086FC3C
:1048B000014660624046874204DD206205E017E061
:1048C0004EE06CE04F4500D32662814201DD60621C
:1048D00002E0494500D36662D4E9010105F006FB18
:1048E00003D0D4E9080102F091FA6068A060B1E059
:1048F000FFF73AF85746B84203DD4FF07E500146C5
:104900001BE04FF07E5B5946614802F07FFA4FF49E
:10491000FA7003F08FFAFFF727F8B8420BDC5C4916
:10492000584602F073FA4FF47A7003F083FAFFF7F7
:104930001BF8B84205DD5846594602F067FA642074
:1049400027E0534F3946084602F060FA4FF47A7078
:1049500003F070FA5946384602F058FA322018E04F
:10496000FFF702F84B49A062884215DA01464A482F
:10497000FFF7F4FE4949E062884202DC4849884278
:1049800001D9E16200E0E16A4FEA010002F03EFA7B
:104990000A2003F04FFA5DE000210846F6E7002701
:1049A0002E4A3832111F081F02F0A2FA10B1132F3D
:1049B00004D006E03BA0FBF7FFFC06E043A0FBF7BA
:1049C000FBFC7F1CFFB2142FEAD3A06B05F02CF97F
:1049D00007468B46606B05F027F9CDE90001206B97
:1049E00005F022F9CDE9027B0B46024643A14B4874
:1049F000FBF7EEFC4948FBF729FE82B24FF6FF7346
:104A000046494748FEF734FF4648A16BFFF7A6FE2C
:104A100083464FF07F51E06005F032F90746206190
:104A200059464FF07F5005F0C9FB014660613E4892
:104A3000874201DD206102E04F4500D326618142BB
:104A400001DD606102E0494500D36661D4E90401FB
:104A500002F0DCF9012003F0EDF9B3E604000020D8
:104A60000000A0400000C841000080800008014014
:104A7000000C01409A9919BF6666E6BF000020C08D
:104A80009A99193F6666E63F0000204028140020EE
:104A9000000080BF0000A0414814002000004040FA
:104AA000000040C06D70755F646D705F6765745F16
:104AB000646174612829204461746120666F7220EA
:104AC000737563636573730A000000006D70755F32
:104AD000646D705F6765745F64617461282920206C
:104AE00044617461206163717569736974696F6E83
:104AF000206661696C7572650A00000070697463F4
:104B0000683A252E326620726F6C6C3A252E32661A
:104B1000207961773A252E32660A00004A0100208A
:104B200068050020681400200000604086B09B4C9F
:104B3000DFF86C92DFF86CA24FF6FF7B002204A92D
:104B4000A06C04F015F810B900208DF810009DF845
:104B5000102095A19648FBF73BFC0121944A08469A
:104B6000FFF77EFD92489DF8102092A13230FBF7AE
:104B70002FFC8F483230FBF769FD8D4982B232231A
:104B800032318F48FEF774FEA06905F04DF80246F9
:104B90000B468CA18648FBF71BFC854A08210120A7
:104BA000FFF75EFD00F084FD05F03EF802460B467F
:104BB00086A17F48FBF70CFC7D4A09210220FFF704
:104BC0004FFDFEF7D1FE05F02FF802460B4681A1FE
:104BD0007748FBF7FDFB764A01210220FFF740FDF5
:104BE000606B05F021F805460E46206B05F01CF8B9
:104BF000CDE9005602460B4678A16D48FBF7E8FB6D
:104C00006B4A01210320FFF72BFDA06B05F00CF888
:104C100002460B4675A16648FBF7DAFB644A0121A0
:104C20000420FFF71DFDD9F8000004F0FDFF054644
:104C30000E46DAF8000004F0F7FF02465C48CDE9C2
:104C400000560B466BA13230FBF7C2FB584832309E
:104C5000FBF7FCFC564982B2322332315848FEF74A
:104C600007FEA06904F0E0FF024651480B4665A12B
:104C70003230FBF7ADFB4E483230FBF7E7FC4C49D6
:104C800082B2322332314E48FEF7F2FD00F010FDC1
:104C900004F0CAFF024646480B465EA13230FBF7DD
:104CA00097FB43483230FBF7D1FC414982B23223B3
:104CB00032314348FEF7DCFDFEF756FE04F0B4FF48
:104CC00002463B480B4656A13230FBF781FB384881
:104CD0003230FBF7BBFC364982B2322332313848DE
:104CE000FEF7C6FDA06B04F09FFF07468846606B89
:104CF00004F09AFF05460E46206B04F095FF02462D
:104D00008DE8E0012A480B4649A13230FBF760FBF1
:104D100027483230FBF79AFC254982B25B46323194
:104D20002748FEF7A5FD00251C4A3832111F081F31
:104D300002F0DEF810B1132D14D026E01C4844A177
:104D40003230FBF75FFC1A483230FBF77FFC184922
:104D500082B2642332311A48FEF78AFD3CA0FBF789
:104D60002BFB16E0124844A13230FBF74BFC1048F5
:104D70003230FBF76BFC0E4982B2642332311048AB
:104D8000FEF776FD48A0FBF717FB6D1CEDB2142D66
:104D9000CAD30A2003F04EF8D0E600000400002039
:104DA0005C000020580000204D6F64653A256400C7
:104DB000180100204D6F64653A25640A0000000068
:104DC000680500204C3A252E32660000553A252E03
:104DD0003266560048433A252E326600703A252E38
:104DE000326620723A252E3266000000793A252E6E
:104DF0003266000076313A252E326676323A252E1A
:104E000032660A004D696C656167653A252E326627
:104E10000A000000553A252E3266560A00000000AE
:104E200048435F535230343A252E3266636D0A0090
:104E300070697463683A252E326620726F6C6C3A22
:104E4000252E3266207961773A252E32660A0000D7
:104E50006D70755F646D705F6765745F64617461C8
:104E60002829204461746120666F72207375636322
:104E70006573730A000000006D70755F646D705F8C
:104E80006765745F646174612829204461746120DE
:104E90006163717569736974696F6E206661696CAD
:104EA0007572650A0A0000006D70755F646D705F51
:104EB0006765745F646174612829202044617461AE
:104EC000206163717569736974696F6E20666169C9
:104ED0006C7572650A00000008B50B4D00240022B5
:104EE0006946A86C03F044FE18B19DF8000010B1AB
:104EF00005E08DF800400021084601F087FF0A20F8
:104F000002F098FFEBE700000400002010B55020ED
:104F100080F31188BFF34F8FBFF36F8F03F0B0FFA3
:104F200018B104494FF080500860002080F31188C8
:104F300010BD000004ED00E030B593B028216846B4
:104F4000FBF722FC14210AA8FBF71EFC0025012018
:104F50000F9510951195010412958DE8230004908A
:104F60004FF4E010CDE90810022407946846FDF7DD
:104F70006FFB08B172B6FEE70AA90F2081E8310085
:104F80004FF48060CDE90D0502210AA8FDF764FA0F
:104F900008B172B6FEE74FF4004011900F940FA8CD
:104FA000FDF7E4F9002801D072B6FEE713B030BD7A
:104FB000704700000148FDF713BF00000004002007
:104FC0000148FDF70DBF0000480400200148FDF72F
:104FD00007BF0000B00600200148FDF701BF000038
:104FE00090040020F0B50268194B1A4C1A4D4FF08E
:104FF0008047984205D0B84203D0A04201D0A842D1
:1050000003D122F070064A683243984205D0B84274
:1050100003D0A04201D0A84203D122F44074CA6850
:1050200022434C6922F08002224302608A68C262F5
:105030000A688262984201D10969016301214161D4
:105040000169C90703D0016921F001010161F0BDC7
:10505000002C0140000400400008004010B501F0A1
:105060001F030121046A99408C430462016A9A403B
:105070001143016210BD10B5846842EA032224F492
:105080007F440A432243826010BD826822F070028E
:105090000A4342F0070181607047000030B5036A9F
:1050A000026A22F0010202624268846924F07305F8
:1050B0000C682C4323F002058B682B430A4DA84251
:1050C0000BD123F00805CB6822F440722B434D69C5
:1050D00023F0040315438A692A43426084614968C6
:1050E0004163036230BD0000002C014030B5026A0C
:1050F000036A23F010030362436884690D6824F493
:10510000E64444EA05248D6822F0200242EA0512B2
:105110000B4DA8420ED1CD6822F0800242EA051262
:105120004D6923F4406343EA85038D6922F0400210
:1051300043EA85034360846149688163026230BD4C
:10514000002C014030B5036A026A22F480720262C8
:105150004268C46923F4007324F073050C682C437F
:105160008D6843EA05230C4DA8420ED1CD6823F487
:10517000006343EA05234D6922F4405242EA0512D6
:105180008D6923F4806342EA05124260C461496874
:10519000C163036230BD0000002C014030B5046AD9
:1051A000026A22F4805202624268C3690D6823F4E5
:1051B000E64343EA05238D6824F4005444EA0534A9
:1051C000064DA84204D14D6922F4804242EA85127C
:1051D0004260C36149680164046230BD002C014033
:1051E00010B5036A046A24F001040462846924F09F
:1051F000F00444EA021423F00A020A4384610262C2
:1052000010BD10B5036A046A24F0100404628469B6
:1052100023F0A00324F4704444EA023243EA01116B
:105220008261016210BD10B5406A0021C185C18450
:10523000FEF720F810BD01680C3151E8002F22F470
:10524000907241E80023002BF5D10168143151E838
:10525000002F22F0010241E80023002BF5D1016B61
:10526000012909D101680C3151E8002F22F0100208
:1052700041E80023002BF5D1202180F842100021C5
:105280000163704708B590F84210222901D002202E
:1052900008BD82684FF480539A4201D1016921B15F
:1052A000816A9A421BD04AB10AE00268816A526858
:1052B000C2F308020A80816A891C08E0026972B19F
:1052C0000268526802F07F020A70816A491C81629A
:1052D000C18D491E0904090CC18503D01BE0026879
:1052E0005268F1E70168CA6822F02002CA600168CA
:1052F000CA6822F48072CA6001684A6922F0010219
:105300004A61202180F8421000214163026B012A8A
:1053100003D0FEF719FA002008BD016301680C31C3
:1053200051E8002F22F0100241E80023002BF5D1B4
:1053300001680A68D20602D50A6849680091818D21
:10534000FDF797FFE7E7000070B5044600680169C4
:10535000E26821F44051114301612169A0680843CA
:10536000616908432168CA6841F20C639A430243A9
:10537000CA6020684169A26921F44071114341610A
:105380001E492068884202D1FDF72CF901E0FDF7A3
:1053900019F900EBC00101EB001260686421800084
:1053A000B2FBF0F3B3FBF1F36FF018067343B2FBFB
:1053B000F0F5B2FBF0F605EB8305322303EB0515A0
:1053C000B5FBF1F5B6FBF1F605F0F00505EB0615BA
:1053D000B2FBF0F6B2FBF0F0B0FBF1F06FF01802A8
:1053E000504306EB800003EB0010B0FBF1F02168A6
:1053F00000F00F002844886070BD000000380140B4
:1054000081628285C28500214164222180F8421098
:10541000016921B10168CA6842F48072CA600168FA
:105420004A6942F001024A610068C16841F0200106
:10543000C160002070472DE9F843984617460D4695
:105440000446089E24E0701C22D0FCF775FEA0EBF9
:105450000800B0421AD8CEB12068C168490717D5F4
:10546000802D15D0402D13D00168C94309070FD4F2
:1054700001680025406800902046FFF7DCFE082008
:10548000606484F840500120BDE8F8830320FBE706
:105490002068006835EA000004D00020B842D2D06D
:1054A0000020F1E70120F9E70D4810B50068006819
:1054B000800610D50B4A1078FF2801D30020107009
:1054C0000949C0B20144401C10704FF47A730122A4
:1054D0000348FEF7D3F8BDE810400148FDF7CCBE05
:1054E000D804002050000020B00500200148FDF73E
:1054F000C3BE0000200500200148FDF7BDBE00002E
:1055000068050020FEE7490050EAC12018BF0420CA
:105510004A0D18BF40F0010040F2FF72B2EB515F3C
:1055200008BF40F00200012808BF052070470907A6
:10553000090E002804DB00F1E02080F80014704719
:1055400000F00F0000F1E02080F8141D70472DE9F5
:10555000F0414F1E00EBC7010446D1E9000115469A
:105560001E4637F006020DD02A46334604F082F874
:105570007F1E04EBC703D3E9002303F017FE37F0C7
:105580000602F1D1022F25D0042F13D0062F18BF09
:10559000BDE8F0812A46334604F06CF8D4E90A23CA
:1055A00003F004FE2A46334604F064F8D4E90823E5
:1055B00003F0FCFD2A46334604F05CF8D4E90623E8
:1055C00003F0F4FD2A46334604F054F8D4E90423EA
:1055D00003F0ECFD2A46334604F04CF8D4E90223EC
:1055E00003F0E4FD2A46334604F044F8D4E90023EE
:1055F000BDE8F04103F0DABD012204F088BE03F0FB
:10560000D5BD002213461046114603F08BBE0000A4
:10561000024A0020110704F07ABE000001FDFFFFDE
:1056200030380A2801D20120704700207047FEE779
:105630002DE9FE4F07460E460025684601F03AF870
:1056400000246FF00F0AE8464FF0010957F82400D4
:1056500056F82410401A00D5404204F0B7FC5146D9
:1056600004F083FE58F8241011F0FF4F0BD004F023
:105670007BFB4FF07E5104F0A1FD0A4920F0004071
:10568000884205DC07E0084908440849884202D3FB
:1056900009FA04F00543641C032CD7DB2846BDE857
:1056A000FE8F0000295C0F3E666666C19A99D9009C
:1056B00010B51148FCF7E4FA32210F48FCF742FA22
:1056C00008B10E4810BD0C48FCF77EF904F096FCBA
:1056D0006FF00B0104F049FE04F0A6FA4FF06632B9
:1056E000074B03F0C7FF0022064B03F0C3FFBDE8E2
:1056F000104003F029BD0000D0030020000080BF4F
:1057000066660A40000014402DE9F04D8D4F21F0EF
:10571000004A86B005460C46BA452ADBAAEB0700CC
:1057200028430AD08848824501DC1AD1CDB106B0A1
:105730002846BDE8F04DFFF75FBF844A844B2846FA
:1057400003F098FF07460E46824A834B28462146BF
:1057500003F090FF06B03A463346BDE8F04D03F043
:1057600025BD0120FBF781F806B0BDE8F04DFFF73D
:1057700048BF7A48824542DABAF1795F0BDA2846A7
:10578000FFF7C1FE042808BFFFF742FF284606B016
:105790002146BDE8F08D2A460B46104603F06AFF0D
:1057A000834602466E480E460B4606217844FFF7B4
:1057B000CEFE5A46334603F05DFF804669488A466E
:1057C0005A46334604217844FFF7C1FE5A46334611
:1057D00003F050FF00223B4603F0E8FC02460B4674
:1057E0004046514603F09EFD2A46234603F042FF01
:1057F00006B02A462346BDE8F04D03F0D7BC284644
:1058000024F0004100223D463B4604F031F84FF0C1
:10581000FF3204F07CFD0646024653480F460B4615
:1058200006217844FFF793FE32463B4603F022FF01
:10583000CDE900014D4832463B4604217844FFF74C
:1058400086FE32463B4603F015FF00222B4603F04E
:10585000ADFC834602913046394602F06DFE80462B
:1058600043480D46504517DCDDE900015A46029BCE
:1058700003F058FD42462B4603F0FCFE42462B4601
:1058800003F094FC012204F042FD304A304B04F056
:10589000E1F8304A304B4CE04FF0000A52460B46DC
:1058A000404603F083FCCDE9031052462B461046D8
:1058B000194603F0DFFE32463B4603F0D9FFDDE92F
:1058C000033203F02FFD06460F46DDE900015A467C
:1058D000029B03F027FD83460091012230463946A2
:1058E00004F015FD194A1A4B03F0C2FF06460F4695
:1058F00001224046294604F00AFD5A46009B03F067
:10590000B9FE32463B4604F0A5F806460F46012292
:105910005046294604F0FBFC0E4DDFF858802A461D
:10592000434603F0A5FF32463B4603F0A1FF2A465B
:10593000434603F09DFF002CD8BF81F0004106B024
:10594000BDE8F08D0000F03F0000F07F075C1433ED
:1059500026A6913C182D4454FB21F93F0000E03F5E
:10596000205F0000365F0000AA5E0000C05E0000FD
:105970003333EF3FFB21E93F2DE9F84F04460D4655
:1059800021F0004000917349814211DC7249884244
:1059900001DC06D12CB120462946BDE8F84FFFF7BF
:1059A0002BBE6E48002DCCBF6D496E49BDE8F88F07
:1059B0006D49814211DD6D498142D8BF4FF0FF36FC
:1059C0006DDD20462946FFF79EFD042808BFFFF73E
:1059D0001FFE20462946BDE8F88F6549654F25F032
:1059E0000045814233DD6449814219DD002632469B
:1059F0004FF080432046294603F0D8FB80468A4674
:105A000001222046294604F082FC00223B4604F095
:105A100021F84246534603F085FC04460D463EE01D
:105A200001260022BA463B462046294603F0BEFB2B
:105A300080460F46002253462046294604F00AF8C5
:105A400042463B4603F06EFC04460D4627E04B49B8
:105A500081421BDDDFF828A10226002253462046A2
:105A6000294603F007FE00223B4603F09FFB8046D9
:105A70000F46002253462046294603F0EBFF4246DC
:105A80003B4603F04FFC04460D4608E00326224641
:105A90002B4600203B4903F045FC04460D462246B8
:105AA0002B461046194603F0E5FD8B46824602461A
:105AB0000B4603F0DFFD07460246334888460B4697
:105AC00006217844FFF743FD52465B4603F0D2FDC2
:105AD00082462E488B463A46434605217844FFF7D6
